:100000000C9434000C9451000C9451000C94510049
:100010000C9451000C9451000C9451000C9451001C
:100020000C9451000C9451000C9451000C947500E8
:100030000C947A000C9451000C9451000C945100D3
:100040000C9451000C9451000C9451000C945100EC
:100050000C9451000C9451000C9451000C945100DC
:100060000C9451000C94510011241FBECFEFD8E026
:10007000DEBFCDBF11E0A0E0B1E0EEE7F1E002C0ED
:1000800005900D92A430B107D9F721E0A4E0B1E0CA
:1000900001C01D92A830B207E1F70E9453000C94F2
:1000A000BD000C940000209A789410928000109269
:1000B00081008091810089608093810080916F0030
:1000C000846080936F0080916F00826080936F00E6
:1000D0008CE291E0909389008093880084E690E020
:1000E00090938B0080938A00FFCF8F9382E085B935
:1000F0008F9118951F921FB61F9211244F935F93F3
:100100006F937F938F939F93AF93BF9315B8809115
:10011000040190910501A0910601B091070101969B
:10012000A11DB11D8093040190930501A0930601C8
:10013000B0930701409104015091050160910601BF
:10014000709107018091000190910101A09102013D
:10015000B0910301481759076A077B0711F4109201
:100160008100BF91AF919F918F917F916F915F912E
:0E0170004F911F901FBE1F901895F894FFCF5F
:04017E000500000078
:00000001FF
