:100000000C9434000C9446000C9446000C9446006A
:100010000C9446000C9446000C9446000C94460048
:100020000C9446000C9446000C9446000C945F001F
:100030000C9446000C9446000C9446000C94460028
:100040000C9446000C9446000C9446000C94460018
:100050000C9446000C9446000C9446000C94460008
:100060000C9446000C94460011241FBECFEFD8E03C
:10007000DEBFCDBF21E0A0E0B1E001C01D92A43001
:10008000B207E1F70E9448000C9490000C94000025
:10009000209A7894109280001092810080918100C3
:1000A0008C608093810080916F00826080936F00EC
:1000B00080EA9FE09093890080938800FFCF1F9291
:1000C0001FB61F9211248F939F93AF93BF9380917C
:1000D000000190910101A0910201B091030180FD06
:1000E0001DC082E085B98091000190910101A0912D
:1000F0000201B09103010196A11DB11D8093000181
:1001000090930101A0930201B0930301BF91AF91BD
:100110009F918F911F901FBE1F90189515B8E3CF28
:04012000F894FFCF81
:00000001FF
